:020000040800F2
:100000006806002089010008E10300084D0200088D
:10001000DD03000845020008F503000800000000A9
:10002000000000000000000000000000E9030008DC
:100030004902000800000000E5030008ED03000885
:10004000A3010008A3010008A3010008A301000800
:10005000A3010008A3010008A3010008A3010008F0
:10006000A3010008A3010008A3010008A3010008E0
:10007000A3010008A3010008A3010008A3010008D0
:10008000A3010008A3010008A3010008A3010008C0
:10009000A3010008A3010008A3010008A3010008B0
:1000A000A3010008A3010008A3010008A3010008A0
:1000B000A3010008A3010008A3010008A301000890
:1000C000A3010008A3010008A3010008A301000880
:1000D000A3010008A3010008A3010008A301000870
:1000E000A3010008A3010008A301000800F002F822
:1000F00000F03AF80AA090E8000C82448344AAF188
:100100000107DA4501D100F02FF8AFF2090EBAE885
:100110000F0013F0010F18BFFB1A43F0010318473B
:100120005404000074040000103A24BF78C878C159
:10013000FAD8520724BF30C830C144BF04680C60ED
:10014000704700000023002400250026103A28BF35
:1001500078C1FBD8520728BF30C148BF0B60704739
:100160001FB51FBD10B510BD00F031F81146FFF7E7
:10017000F7FF00F041F900F04FF803B4FFF7F2FF8A
:1001800003BC00F057F800000948804709480047C1
:10019000FEE7FEE7FEE7FEE7FEE7FEE7FEE7FEE737
:1001A000FEE7FEE704480549054A064B7047000094
:1001B000F1030008ED000008680000206806002038
:1001C000680200206802002070477047704775463B
:1001D00000F02CF8AE4605006946534620F00700B3
:1001E000854618B020B5FFF7DDFFBDE820404FF091
:1001F00000064FF000074FF000084FF0000BAC4630
:10020000ACE8C009ACE8C009ACE8C009ACE8C0097A
:1002100021F007018D46704710B50446AFF300800A
:100220002046BDE81040FFF7A8BF00000048704717
:100230000800002001491820ABBEFEE7260002009E
:1002400070470000FEE7000070470000FEE7000076
:100250002DE9F04FB1F8018098FAA8F3B3FA83F3CF
:1002600038FA03F74FD040F2011C4FF0011E4FF057
:100270000F0A4FF0040903E0013338FA03F242D0C9
:1002800028FA03F5ED07F7D0B3F108050EFA05F5E6
:1002900045F080664D6838BF0CFA03F6082D0DD185
:1002A000370AD1F810B0C46897FAA7F7B7FA87F7FA
:1002B00024EA16240BFA07F73C43C460370E96FA7B
:1002C000A6F6B6FA86F63C58B6000AFA06F224EA12
:1002D000020205FA06F442EA04053D504A6842F07B
:1002E0000802092AC8D18A680324B44025EA040414
:1002F000B2402243C251CC6809FA06F5AA43B44081
:100300002243C251B8E70020BDE8F08F44F6D35134
:10031000C1F26201A0FB01014FF0FF3000EB911030
:100320004EF21001CEF200014860002088600520E6
:100330000860704740F20001C2F200010860704797
:1003400081B04EF21001CEF200010A680130009235
:10035000009A28BF4FF0FF3030B100BF0A68D203C7
:1003600000EBE2700028F9D101B0704780B586B08B
:10037000002141F218000491C4F20200026842F028
:1003800010020260026802F010020592059A0268EB
:1003900042F020020260026802F020020592059AF3
:1003A000026842F00402026000684FF4005200F05C
:1003B00004000590059841F20000C4F2010042617A
:1003C0002022C0F220420092012201920222CDE9B5
:1003D00002216946FFF73CFF06B080BDFEE7000042
:1003E000FEE7000070470000704700007047000003
:1003F00070470000FEE7000082B041F20400C4F242
:10040000020041694EF60C5241F00101416141691F
:10041000CEF2000201F001010091009981694FF6CE
:10042000FF0341F08051816181694FF0FF3401F099
:100430008051019101991168194040F20033C0F2D6
:10044000FA5319431160136842F20001C3F3022307
:1004500083F00705042D28BF0425033B04FA05F5A6
:1004600038BF0023ED4305FA03F31B01D3750422C3
:10047000C4F201021368022565F31A63C4F2020193
:1004800013600A6822F007020A600A68520709D05E
:100490000A6852071CBF0A685FEA427202D00A6803
:1004A0005207F2D150F8041C102262F3C70140F841
:1004B000041C50F8041C41F0010140F8041C50F8E1
:1004C000041C89070CD450F8041C89075CBF50F841
:1004D000041C5FEA817103D450F8041C8907EED52F
:1004E000016821F0F0010160016821F4E061016020
:1004F000016821F460510160016821F0030101608D
:10050000016811F00C0F0BD0016811F00C0F07D02F
:10051000016811F00C0F03D0016811F00C0FEFD13E
:1005200041F20024C0F27A0441F20C052046C4F2E4
:100530000105FFF7EBFE2046FFF7FCFEFFF716FF75
:100540004EF21000CEF2000041F63F7141600021F2
:1005500081600521016000BF286800F4005040EA76
:10056000004080F4005068604FF47A70FFF7E8FEB6
:10057000F2E70000980500080000002008000000D5
:1005800028010008A00500080800002060060000FF
:1005900044010008000000000024F40000000000F6
:04000005080000ED02
:00000001FF
